:107C0000CF93DF93CDB7DEB72B970FB6F894DEBFD7
:107C10000FBECDBF112484E590E0FC018081882F48
:107C200090E088709927892B89F084E590E0FC0129
:107C300010820FB6F894A8958091600088618093B7
:107C40006000109260000FBE0C94000089E090E08C
:107C500088709927892B11F088E201C088E099E0AB
:107C60009770892B982F88E10FB6F894A895809388
:107C700060000FBE909360000E94383F8DE20E942A
:107C80005C3F0E94823F8B83A8958B818134B1F445
:107C90000E94823F882F90E0982F88279A838983BB
:107CA0000E94823F882F90E029813A81822B932B7A
:107CB0009A8389838DE00E945C3FE3CF8B8185347A
:107CC00019F51A82198217C087E590E0FC018081BE
:107CD000882F90E081709927892BB1F789819A814B
:107CE00023E0FC0120935700E89589819A81805810
:107CF0009F4F9A83898389819A8181159C4724F3B8
:107D00008DE00E945C3FBDCF8B81823589F587E590
:107D100090E0FC018081882F90E081709927892B69
:107D2000B1F781E180935700E89589819A81880FA6
:107D3000991F01969D838C838C819D81FC01849188
:107D40008E838E810E945C3F89819A81880F991F62
:107D500098878F838F819885FC0184918987898595
:107D60000E945C3F89819A8101969A83898389CF99
:107D70008B81833521F489E50E945C3F82CF8B8122
:107D8000833499F50E94823F882F90E09B878A87F1
:107D90000E94823F882F90E0982F88272A853B8574
:107DA000822B932B9B878A8787E590E0FC0180815B
:107DB000882F90E081709927892BB1F789819A816A
:107DC000880F991F9C018A859B8541E0F9010C0170
:107DD00040935700E895112489819A8101969A83EE
:107DE00089838DE00E945C3F4CCF8B818D34B9F448
:107DF00087E590E0FC018081882F90E081709927D1
:107E0000892BB1F789819A81880F991F25E0FC01A0
:107E100020935700E8958DE00E945C3F32CF8B8124
:107E20008835A9F487E590E0FC018081882F90E0F7
:107E300081709927892BB1F781E180935700E895EC
:107E40008DE00E945C3F8AE70E945C3FFCCF8B8103
:107E5000893451F482E50E945C3F83E50E945C3FD7
:107E600080E00E945C3F0DCF8FE30E945C3F09CF12
:107E7000CF93DF93CDB7DEB785EC90E0FC011082A5
:107E800084EC90E027E6FC01208380EC90E0FC018C
:107E9000208180EC90E02D7FFC01208382EC90E03B
:107EA00026E0FC01208381EC90E028E1FC012083A6
:107EB0000000DF91CF910895CF93DF930F92CDB75C
:107EC000DEB78983000080EC90E0FC018081882F80
:107ED00090E080729927892BB1F386EC90E029819C
:107EE000FC012083000080EC90E0FC018081882F61
:107EF00090E080729927892BB1F300000F90DF91F9
:107F0000CF910895CF93DF930F92CDB7DEB70000E6
:107F100080EC90E0FC0180818823D4F786EC90E02F
:107F2000FC018081898389810E945C3F89810F9057
:067F3000DF91CF910895DE
:0400000300007C007D
:00000001FF
