:200000000C94F0000C9418010C9418010C9418010C9418010C9418010C9418010C94180141
:200020000C9418010C9418010C9418010C9418010C9418010C9418010C9418010C941801F8
:200040000C94BB050C9418010C948E050C9468050C9418010C9418010C9418010C94180163
:200060000C9418010C94180100407A10F35A00A0724E18090010A5D4E80000E87648170048
:2000800000E40B54020000CA9A3B000000E1F505000080969800000040420F000000A0863C
:2000A00001000000102700000000E803000000006400000000000A000000000001000000AE
:2000C00000002C76D888DC674F0823DFC1DFAE59E1B1B796E5E3E453C63AE651997696E839
:2000E000E6C28426EB898C9B62ED407C6FFCEFBC9C9F40F2BAA56FA5F490055A2AF75C931F
:200100006B6CF9676DC11BFCE0E40D47FEF520E6B500D0ED902E0300943577050080841EB8
:20012000080000204E0A000000C80C333333330F986E12831141EF8D2114893BE65516CF0E
:20014000FEE6DB18D1844B381BF77C1D901DA4BBE424203284725E228100C9F124ECA1E598
:200160003D27005EBCE2613FDD83C29C7E20A3FD1F41009D23BE46DB65F88C11AF32CA5788
:20018000E974000000080002010000030407000000000000000000000000250028002B0071
:2001A00000000000240027002A000000000023002600290004040404040404040202020230
:2001C000020203030303030301020408102040800102040810200102040810200306450A34
:2001E00011241FBECFEFD8E0DEBFCDBF22E0A2E5B1E001C01D92A733B207E1F711E0A0E0E8
:20020000B1E0E6E3F0E202C005900D92A235B107D9F710E0CFEED0E004C02197FE010E94E3
:200220000810CE3ED107C9F70E94C4060C94670A0C94000090E0FC01EE57FE4F2491FC0134
:20024000E853FE4F3491FC01EC54FE4FE491EE23C9F0222339F0233001F1A8F4213019F1DE
:20026000223029F1F0E0EE0FFF1FEA56FE4FA591B4918FB7F894EC91611126C030953E2352
:200280003C938FBF08952730A9F02830C9F0243049F7809180008F7D03C0809180008F7718
:2002A00080938000DFCF84B58F7784BDDBCF84B58F7DFBCF8091B0008F778093B000D2CF99
:2002C0008091B0008F7DF9CF3E2BDACFE0E0615098F0DC018D918E27E82FEF70F0E0EE5941
:2002E000FE4F9491E82FE295EF70F0E0EE58FE4FE491E927CD01EBCF8E2F0895DC012C913B
:200300001196ED91FC91F8948181822B81839281322F30959323928387E090E00197F1F791
:2003200081818323818383E290E00197F1F790817894EFECF0E03197F1F7922381E009F431
:2003400080E00895FC0190810180F281E02D292F209560FF14C0F894828182238283818116
:20036000892B8183A3E2B0E01197F1F78281982B9283789487ED90E00197F1F70895F894AC
:200380008281822382838181892B8183AFEFB0E01197F1F78281982B928378948FE090E072
:2003A000EBCFDF92EF92FF920F931F93CF93DF93EC01D62EE42E08E010E0FF24F39461E012
:2003C0008D2D8F2109F460E0CE010E94A201FF0C01501109A1F7E11010C0F894E981FA8122
:2003E00091818881809589238183E981FA81928188818095892382837894DF91CF911F91CA
:200400000F91FF90EF90DF900895EF92FF920F931F93CF93DF938C017B0140E065E50E94D3
:20042000D101E70188E0E80EF11C699140E0C8010E94D101CE15DF05C1F7DF91CF911F9141
:200440000F91FF90EF900895FC0190810180F281E02DF8948181292F2095822381837894F2
:200460008DE743E050E0815021F1DA011197F1F730813923C1F3F89482818223828381816B
:20048000892B81837894ABE7B7E01197F1F7F894818182238183A3E1B1E01197F1F7808102
:2004A000982381E009F080E07894E3E6F6E03197F1F708956F927F928F929F92AF92BF92D9
:2004C000CF92DF92EF92FF920F931F93CF93DF938C01EB0180911102909112020E94240276
:2004E000882309F43FC0B80180911102909112020E94050240E06EEB8091110290911202C8
:200500000E94D1018E016E0189E0C80ED11C7E01A0901102B090120288E0882E912C712CAF
:2005200066246394C5010E947E0181117628660CE1E08E1A9108B1F7F70171927F01CE16A8
:20054000DF0631F780911102909112020E942402813041F4F80181918F01811105C0CE16B1
:20056000DF06C1F790E008C068E0CE010E94660191E028852813F6CF892FDF91CF911F9130
:200580000F91FF90EF90DF90CF90BF90AF909F908F907F906F900895CF93DF93CDB7DEB76B
:2005A00029970FB6F894DEBF0FBECDBFFC0120812031D9F0BE016F5F7F4F0E945A02882378
:2005C00031F08D818F3399F060F48F3191F080E029960FB6F894DEBF0FBECDBFDF91CF91D6
:2005E00008958F3541F08F3791F78CE0F1CF8AE0EFCF89E0EDCF8BE0EBCFCF92DF92EF922A
:20060000FF920F931F93CF93DF937C016A0110E000E00C151D0581F0EB01D701ED91FC91E6
:200620000190F081E02D6991C7010995892B21F00F5F1F4FBE01EDCFC801DF91CF911F91E6
:200640000F91FF90EF90DF90CF900895FC01538D448D252F30E0842F90E0821B930B5417A6
:2006600010F0CF96089501970895FC01918D828D981761F0A28DAE0FBF2FB11D5D968C9161
:20068000928D9F5F9F73928F90E008958FEF9FEF0895FC01918D828D981731F0828DE80F54
:2006A000F11D858D90E008958FEF9FEF0895FC01918D228D892F90E0805C9F4F821B910971
:2006C0008F73992708958BE691E00E94570321E0892B09F420E0822F089580E090E0892B59
:2006E00029F00E94630381110C9400000895FC01A48DA80FB92FB11DA35ABF4F2C91848D96
:2007000090E001968F739927848FA689B7892C93A089B1898C91837080648C93938D848D28
:20072000981306C00288F389E02D80818F7D80830895EF92FF920F931F93CF93DF93EC0161
:20074000F62E81E0888F9B8D8C8D98131AC0E889F989808185FF15C09FB7F894EE89FF8909
:200760006083E889F98980818370806480839FBF81E090E0DF91CF911F910F91FF90EF906B
:2007800008950B8D10E00F5F1F4F0F731127E02E8C8D8E110CC00FB607FCFACFE889F98988
:2007A000808185FFF5CFCE010E947703F1CFEB8DEC0FFD2FF11DE35AFF4FF0829FB7F894B9
:2007C0000B8FEA89FB8980818062D0CFCF93DF93EC01888D8823B9F0AA89BB89E889F98972
:2007E0008C9185FD03C0808186FD0DC00FB607FCF7CF8C9185FFF2CF808185FFEDCFCE0146
:200800000E947703E9CFDF91CF9108953FB7F8948091530190915401A0915501B09156011B
:2008200026B5A89B05C02F3F19F00196A11DB11D3FBFBA2FA92F982F8827BC01CD01620F0A
:20084000711D811D911D42E0660F771F881F991F4A95D1F708958F929F92AF92BF92CF92A9
:20086000DF92EF92FF926B017C010E9406044B015C01C114D104E104F104B9F00E940604DE
:20088000681979098A099B09683E73408105910580F321E0C21AD108E108F10888EE880E92
:2008A00083E0981EA11CB11CE4CFFF90EF90DF90CF90BF90AF909F908F900895BF92CF92DB
:2008C000DF92EF92FF920F931F93CF93DF93EC01B62EC72E8D85811105C0CE010E942402A7
:2008E00081110EC01B861D861C8680E0DF91CF911F910F91FF90EF90DF90CF90BF9008956A
:2009000040E060EFCE010E94D10101E0E12CD12C11E0CE010E947E01F82ECE010E947E0143
:2009200091E0F91218C0813099F51134D8F2DB86D11002C081E08D878B81882399F22396A1
:20094000EB2DFC2DCF010896299121938E179F07D9F781E0CBCF2E2D30E0F8120EC08B8511
:200960001817A0F4FE01E20FF31F8381802381F4F12C193008F41C87D12EFE01E20FF31F90
:200980008381902F9095892383830AC08113F0CFFE01EE0DF11D8381802B8383FF24F39439
:2009A0006F2DCE010E94A2011F5F000F11F4E39401E087E08E1508F0ACCFB7CFFC0101900C
:2009C0000020E9F73197AF01481B590BBC018BE691E00C94FD02FC0180819181009711F0F2
:2009E0000C94700E08950F931F93CF93DF93EC018B0188819981009759F02A813B812617F4
:200A0000370730F081E0DF91CF911F910F910895B8016F5F7F4F0E94010F009759F0998357
:200A200088831B830A832C813D81232B59F7FC011082E8CF80E0E7CFEF92FF920F931F93B5
:200A4000CF93DF93EC017B018A01BA010E94F30428813981811114C02115310519F0C90172
:200A60000E94700E198218821D821C821B821A82CE01DF91CF911F910F91FF90EF90089511
:200A80001D830C83B701C9010E94D90FF1CFCF93DF93EC016115710571F0FB0101900020A0
:200AA000E9F73197AF01461B570B0E941C05CE01DF91CF91089588819981009711F00E94BF
:200AC000700E198218821D821C821B821A82EFCF1F920F920FB60F9211242F933F934F93CC
:200AE0005F936F937F938F939F93AF93BF93EF93FF938BE691E00E947703FF91EF91BF9196
:200B0000AF919F918F917F916F915F914F913F912F910F900FBE0F901F9018952F932FB7C6
:200B20002F938F939F93EF93FF93E0917B01F0917C018081E0918101F091820182FD19C050
:200B40009081809184018F5F8F7320918501821741F0E0918401F0E0E559FE4F958F809375
:200B60008401FF91EF919F918F912F912FBF2F9118958081F6CF1F921FB61F9211242F9381
:200B80003F938F939F93AF93BF938091570190915801A0915901B0915A013091520123E07A
:200BA000230F2D3750F50196A11DB11D209352018093570190935801A0935901B0935A011F
:200BC0008091530190915401A0915501B09156010196A11DB11D8093530190935401A093E6
:200BE0005501B0935601BF91AF919F918F913F912F911F901FBE1F90189526E8230F0296D5
:200C0000A11DB11DD3CFCF93DF9310926E0110926D0188EE93E0A0E0B0E080936F01909312
:200C20007001A0937101B093720188E191E090936C0180936B0185EC90E09093780180936F
:200C4000770184EC90E090937A018093790180EC90E090937C0180937B0181EC90E0909306
:200C60007E0180937D0182EC90E09093800180937F0186EC90E09093820180938101109290
:200C8000840110928501109286011092870110922E0210922D021092300210922F02109268
:200CA00032021092310250E040E06DE371E08DE292E00E941C054BEC51E0FA01649187EBCC
:200CC00091E0FC0124912223C1F030E0220F331FF901E056FE4FA591B491F901EA56FE4FE9
:200CE000C591D4917FB7F8943C91262F209532233C933881232328837FBFFA0144914093F1
:200D00001F02FC018491E82FF0E0EE0FFF1FE655FE4F8591949190932102809320021092BE
:200D20002A0210922C0210922B02109229021092280210922702109226021092250210924F
:200D40002402109223021092220210921E0210921D02109209028FE192E090931202809384
:200D6000110210920F02109210021092080289E080930B0281E080930C0280930D0280930D
:200D80000E02DF91CF910895CDB7DEB765970FB6F894DEBF0FBECDBF789484B5826084BD12
:200DA00084B5816084BD85B5826085BD85B5816085BD80916E00816080936E001092810019
:200DC0008091810082608093810080918100816080938100809180008160809380008091EE
:200DE000B10084608093B1008091B00081608093B00080917A00846080937A0080917A00AE
:200E0000826080937A0080917A00816080937A0080917A00806880937A001092C10014BE35
:200E20000FB6F894A89580916000886180936000109260000FBEE0911102F09112021386D6
:200E4000158614861286118610861782168215821482138210920F021092100211E0BE018E
:200E60006F5F7F4F80911102909112020E945E04882309F459C067E0CE0101960E94660102
:200E800098858913ECCF80910F028F5F80930F028981883231F008F041C0803111F0823266
:200EA000F1F6809110028F5F8093100280910802811128C080911102909112020E9424025F
:200EC000BE016F5F7F4F80911102909112020E94050240E064EB80911102909112020E944B
:200EE000D10180911102909112020E947E01082F80911102909112020E942402011102C07A
:200F000010930802CE0101960E94CC0290910B02981708F0A4CF80930B02A1CF8B3309F2BD
:200F2000823409F09CCFBDCF80910001803109F46FC0BE016F5F7F4F80E091E00E945A02F2
:200F4000882309F465C08D818F3709F461C08FE78D8380911102909112020E94240260E0EB
:200F600071E080911102909112020E94050240E06EE480911102909112020E94D10140E0BF
:200F80006B8180911102909112020E94D10140E06C8180911102909112020E94D1018091AD
:200FA0000001803141F040E06D8180911102909112020E94D1018091110290911202209169
:200FC0000E02222319F10E942402882309F160E071E080911102909112020E9405024091E1
:200FE000080268E480911102909112020E94D10180910802811128C164E170E080E090E0D3
:201000000E942B0480911102909112020E9424028CE080930B0268EE73E080E090E00E9437
:201020002B04E0917B01F0917C0182E08083E0917701F09178011082E0917901F0917A01D5
:201040008FEC808310928301E0917F01F091800186E08083E0917D01F0917E0180818061BF
:201060008083E0917D01F0917E01808188608083E0917D01F0917E01808180688083E09146
:201080007D01F0917E0180818F7D808300E0E02E00E0F02E8BE691E00E94570318161906AB
:2010A0000CF0E7C18BE691E00E9435036C0189831A8200913102109132020F5F1F4FB8018D
:2010C0008DE292E00E94F304882399F020912D0230912E028091310290913202BE016F5F6B
:2010E0007F4F820F931F0E94D90F10933202009331022DE0C216D10469F6C0903102D090BC
:201100003202198A188A1B8A1A8A1D8A1C8A50E040E06DE371E0CE0140960E941C050091D6
:2011200031021091320201151105E9F00530110510F005E010E0E0912D02F0912E02E00F42
:20114000F11FB080108260912D0270912E02CE0140960E94470580912D0290912E02080F31
:20116000191FF801B082B5E0AB2EB12CF5E0CF16D10420F4560115E0C12ED12C1B861A86A5
:201180001D861C861F861E8650E040E06DE371E0CE010A960E941C05009131021091320205
:2011A000A016B106F0F4C016D10608F48601E0912D02F0912E02E00FF11FD080108260918B
:2011C0002D0270912E026A0D7B1DCE010A960E94470580912D0290912E02080F191FF8016A
:2011E000D0828C899D89892B09F428C166E271E0888999890E94D00F892B09F43FC06CE27D
:2012000071E0888999890E94D00F892B09F41DC16EE371E0888999890E94D00F892B09F037
:201220000DC16DE371E08DE292E00E944705F89414BE0C94003ECE010A960E94EB04CE0165
:2012400040960E94EB0426CF80910902882329F060E080910A020E941A0164E170E080E043
:2012600090E00E942B0480910902882309F4CACE61E080910A020E941A01C4CE6DE371E083
:201280008DE292E00E94470580911102909112020E94240240E06CEC80911102909112028D
:2012A0000E94D1014091080264E480911102909112020E94D10180910C02882389F1E09115
:2012C0000B0280910D028823C9F180910802811135C08FB7F8948090570190905801A090F7
:2012E0005901B0905A018FBF80911102909112020E947E018130A1F02FB7F8948091570114
:2013000090915801A0915901B0915A012FBF88199909AA09BB098E3E9240A105B10520F377
:20132000BE016F5F7F4F80E091E00E945A0281112CC060E070E08EEF92EC66C0E9508EEE9F
:2013400092E0E33038F4F0E0EE0FFF1FE25FFE4F808191814C01990FAA08BB0880910902CA
:20136000882329F060E080910A020E941A01C501B4010E942B0480910902882389F261E0C0
:2013800080910A020E941A01CBCF6A8170E0762F6627770F770F770F298148E0249F9001B4
:2013A0001124262B372B809100018031E1F468856623C9F070E08F81FB01E81BF109CF0155
:2013C0009695982F8827979587950E94E00FCB018097B90153E0660F771F5A95E1F7607819
:2013E0009C01260F371F2138F4EE3F070CF4A1CFB901330F880B990B0E94A60C20E030E03D
:2014000040E05CE30E94E10C0BE511E022E044E00E94490A82E391E00E94DE04C8010E941D
:20142000DE0486E391E00E94DE048BE391E00E94DE048C899D89892B09F0E1CE6DE371E0D1
:201440008DE292E00E944705F6CE6DE371E08DE292E00E94470584E491E00E94DE048BE3BE
:2014600091E00E94DE048C899D89892B09F0D0CEE5CFE114F10409F40DCE0E9463038823C8
:2014800009F408CE0E94000005CE8DE292E00C94EB04EF920F931F93CF93DF93E80134E0EE
:2014A00047FD34E1042E000C550B57FF03C0519541955109E32E022F242FAE010E946A0AAC
:2014C000CE01DF91CF911F910F91EF900895F8940C940E10A9E0B0E0E0E7FAE00C94A50DAB
:2014E0006A01F22EB02E102F0BE30B1508F41BE31F5F012F27E0AE014F5F5F4F0E94CC0B03
:20150000BC018981982F99709130C9F19BE2E1FC04C09E2D9170E0FC90E25E2D5071E82F1E
:20152000E87083FF48C083E0911184E0EF2DE81B8F1508F0E0E0552371F1992319F0D6016F
:201540009D936D01C6010396E2FE29C02EE4D6012C9331E411963C93119712962C932E2F25
:20156000382F492F50E221111FC0E80FF92FF11D10828EEF9FEF2996ECE00C94C10D9DE207
:20158000CCCFD9014D9381509D018111FACFCE0ED11CE0E0D2CF8E2F960140E2F6CF2EE6B3
:2015A000D6012C9331E6D6CFA32FB42F5D9321503A2F4B2FD8CF482F447082FF41C083E029
:2015C000911184E08F1510F4EF2DE81B552359F1992319F0D6019D936D01C6010396E2FE02
:2015E00026C029E4D6012C932EE411962C93119726E412962C932E2F382F492F50E222231E
:2016000009F4B3CFA32FB42F5D9321503A2F4B2FF6CFD9014D9381509D018111FACFCE0E2D
:20162000D11CE0E0D5CF8E2F960140E2F6CF29E6D6012C932EE611962C93119726E6D9CFA3
:201640009B0177FF02C030E020E0A1E0B0E0911102C0B0E0A0E0F9013196AE0FBF1F8B2C0E
:20166000912CBB20F1F05401EFEFAE1ABE0AAA0DBB1DFA161B0619F014F04F2D4A1B51111E
:2016800045C0E3FC08C07601A42FB0E2A1110CC0C40ED11C40E091113BC0D601942F50E3FB
:2016A0000AC0B12CA12CE3CFF701B1937F01A150EDCF5D9391509111FCCFC40ED11C40E07E
:2016C0002DC001E03AC050E354C06217730739F4A63320F4A53319F4B11101C051E3D6017B
:2016E0005C93242F382F592F60E2211108C0480F592F511DFA01108290E080E03CCFE32FB6
:20170000F52F619321503E2F5F2FEFCF992331F0D6019D936D01552309F4BFCF012F060FED
:20172000AA81B82FB07184FF03C0A13309F4015010163CF6093008F008E0FB01E01BF109AC
:201740008F01EE24FF24E818F9088EE2B82E621773070CF4B8CF021713070CF0B4CFFB0145
:20176000E21BF30B81E090E08C0F9D1FE80FF91F518121503109C60101962E153F050CF4D5
:20178000A4CFF60150832F3F320721F4C6010296F601B1826C01DBCF283008F027E03327FF
:2017A000DA01990F311D87FD916000966105710539F432602E5F3D9330E32A95E1F708950E
:2017C0009F3F30F080387105610509F03C5F3C5F3D93913008F08068911DDF93CF931F93A3
:2017E0000F93FF92EF92192F987F9695E92F96959695E90FFF27EE53FF4F99273327EE2464
:20180000FF24A701E70105900894079428F4360FE71EF81E491F511D660F771F881F991F8D
:201820000694A1F70590079428F4E70EF81E491F561FC11D770F881F991F661F0694A1F7C8
:201840000590079428F4F80E491F561FC71FD11D880F991F661F771F0694A1F705900794B9
:2018600020F4490F561FC71FD81F990F661F771F881F0694A9F784911095177041F0D69529
:20188000C79557954795F794E7941A95C1F7E8E6F0E068941590159135916591959105905B
:2018A0007FE27395E118F10A430B560BC90BD009C0F7E10CF11E431F561FC91FD01D7EF49E
:2018C000703311F48A95E6CFE894015030F0080F0AF40027021708F4202F2395022F7A3369
:2018E00028F079E37D932A95E9F710C07D932A9589F6069497956795379517951794E118C9
:20190000F10A430B560BC90BD00998F023957E9173957A3308F070E37C932013B8F77E9121
:2019200070617D9330F0839571E37D9370E32A95E1F71124EF90FF900F911F91CF91DF91DD
:20194000992787FD90950895E89409C097FB3EF490958095709561957F4F8F4F9F4F9923ED
:20196000A9F0F92F96E9BB279395F695879577956795B795F111F8CFFAF4BB0F11F460FF3D
:201980001BC06F5F7F4F8F4F9F4F16C0882311F096E911C0772321F09EE8872F762F05C0E1
:2019A000662371F096E8862F70E060E02AF09A95660F771F881FDAF7880F9695879597F940
:2019C00008950E94F40C0C94650D0E94570D38F00E945E0D20F0952311F00C944E0D0C9417
:2019E000540D11240C94990D0E94760D70F3959FC1F3950F50E0551F629FF001729FBB276E
:201A0000F00DB11D639FAA27F00DB11DAA1F649F6627B00DA11D661F829F2227B00DA11D1F
:201A2000621F739FB00DA11D621F839FA00D611D221F749F3327A00D611D231F849F600D1F
:201A4000211D822F762F6A2F11249F5750409AF0F1F088234AF0EE0FFF1FBB1F661F771F3E
:201A6000881F91505040A9F79E3F510580F00C944E0D0C94990D5F3FE4F3983ED4F386959D
:201A800077956795B795F795E7959F5FC1F7FE2B880F911D9695879597F9089597F99F67BC
:201AA00080E870E060E008959FEF80EC089500240A941616170618060906089500240A9463
:201AC00012161306140605060895092E0394000C11F4882352F0BB0F40F4BF2B11F460FFEB
:201AE00004C06F5F7F4F8F4F9F4F089557FD9058440F551F59F05F3F71F04795880F97FBCD
:201B0000991F61F09F3F79F087950895121613061406551FF2CF4695F1DF08C01616170670
:201B20001806991FF1CF86957105610508940895E894BB2766277727CB0197F908952F929C
:201B40003F924F925F926F927F928F929F92AF92BF92CF92DF92EF92FF920F931F93CF9352
:201B6000DF93CDB7DEB7CA1BDB0B0FB6F894DEBF0FBECDBF09942A88398848885F846E8413
:201B80007D848C849B84AA84B984C884DF80EE80FD800C811B81AA81B981CE0FD11D0FB6F6
:201BA000F894DEBF0FBECDBFED0108950F931F93CF93DF938230910510F482E090E0E09161
:201BC0003502F091360230E020E0B0E0A0E0309799F42115310509F447C0281B390B243056
:201BE0003105C0F58A819B816115710571F1FB0193838283FE0111C04081518102811381F4
:201C000048175907F8F04817590799F4109761F012960C93129713961C933296CF01DF9189
:201C2000CF911F910F9108950093350210933602F4CF2115310519F04217530718F49A0120
:201C4000BD01EF01DF01F801C2CF9093360280933502D0CFFE01E20FF31F8193919322507C
:201C6000310939832883DACF2091330230913402232B41F420910A0130910B013093340238
:201C80002093330220910801309109012115310541F42DB73EB740910C0150910D01241B51
:201CA000350B40913302509134024217530708F0B5CF241B350B2817390708F4AFCFBC0163
:201CC0006E5F7F4F2617370708F4A8CF640F751F7093340260933302FA01819391939ECF73
:201CE000CF93DF930097E9F0FC01329713821282C0913502D0913602DE0130E020E02097EA
:201D0000A1F420813181820F931F20913302309134022817390709F067C0F0933402E093F0
:201D20003302DF91CF910895DA01AE17BF0708F040C012964D915C9113979D01411551053C
:201D400099F7D9011396FC93EE9312974D915D91A40FB51FEA17FB0779F480819181029649
:201D6000840F951FD90111969C938E938281938113969C938E931297B0E0A0E08A819B815B
:201D80000097B9F5FE0181919191E80FF91F80913302909134028E179F0719F6109761F5C8
:201DA0001092360210923502D0933402C0933302B8CFB383A28340815181840F951FA817D4
:201DC000B90771F44E5F5F4F8D919C911197480F591F5183408312968D919C91938382831C
:201DE0002115310509F0ADCFF0933602E093350298CFDE01EC01C2CF13961C921E92129729
:201E0000D3CFB0E0A0E0E7E0FFE00C94A30D8C01009751F4CB010E94D60D8C01C801CDB786
:201E2000DEB7EEE00C94BF0DFC01E60FF71F9C0122503109E217F30708F4A6C0D901CD91F5
:201E4000DC911197C617D70798F0C530D10530F3CE0104978617970708F3C61BD70B229720
:201E6000C193D1936D937C93CF010E94700ED6CF4B018C1A9D0A5C01AC0EBD1EA091350213
:201E8000B0913602712C612CF12CE12C109731F580913302909134028A159B0509F065C0AE
:201EA0006616770608F061C08091080190910901009741F48DB79EB740910C0150910D0199
:201EC000841B950BE817F90708F05EC0F0933402E0933302F90171836083A0CF8D919C91C2
:201EE0001197AA15BB05B9F56C0142E0C40ED11CC814D90480F1AE01461B570B480F591F54
:201F00001296DC9012971396AC915A01B2E0AB0EB11CB5E0AB16B10480F0D282A3835183E2
:201F20004083D9016D937C93E114F10479F0D7011396FC93EE93129771CF22968C0F9D1F19
:201F4000F90191838083ED2DFA2FEECFF0933602E093350263CF6816790608F43C017D0125
:201F600012960D90BC91A02D91CFCB010E94D60D7C01009749F0AE01B8010E94C70FC8015B
:201F80000E94700E87014ACF10E000E047CFFB01DC0102C001900D9241505040D8F7089542
:201FA000FB01DC018D91019080190110D9F3990B0895FB01DC0101900D920020E1F7089544
:201FC00097FB072E16F4009407D077FD09D00E94F40F07FC05D03EF4909581959F4F089503
:201FE000709561957F4F0895AA1BBB1B51E107C0AA1FBB1FA617B70710F0A61BB70B881F9F
:20200000991F5A95A9F780959095BC01CD010895EE0FFF1F0590F491E02D099410E0CFEE8B
:20202000D0E004C0FE010E9408102196C03FD107C9F7F894FFCF28C375140C0000EA000061
:20204000370220005E00BC007701000000009903FD022603E60357033503490374656D7054
:20206000610074657374610074313D0020C2B043000D0A007265736574006D696E69636F6E
:20208000726520312E340000FFFFFFFFFFFFFFFFFFFFFFFFFFFFFFFFFFFFFFFFFFFFFFFFCE
:2020A000FFFFFFFFFFFFFFFFFFFFFFFFFFFFFFFFFFFFFFFFFFFFFFFFFFFFFFFFFFFFFFFF40
:2020C000FFFFFFFFFFFFFFFFFFFFFFFFFFFFFFFFFFFFFFFFFFFFFFFFFFFFFFFFFFFFFFFF20
:2020E000FFFFFFFFFFFFFFFFFFFFFFFFFFFFFFFFFFFFFFFFFFFFFFFFFFFFFFFFFFFFFFFF00
:20210000FFFFFFFFFFFFFFFFFFFFFFFFFFFFFFFFFFFFFFFFFFFFFFFFFFFFFFFFFFFFFFFFDF
:207C0000CF93DF93CDB7DEB72B970FB6F894DEBF0FBECDBF112484E590E0FC018081882FAB
:207C200090E088709927892B89F084E590E0FC0110820FB6F894A89580916000886180938C
:207C40006000109260000FBE0C94000089E090E088709927892B11F088E201C088E099E003
:207C60009770892B982F88E10FB6F894A895809360000FBE909360000E94383F8DE20E949E
:207C80005C3F0E94823F8B83A8958B818134B1F40E94823F882F90E0982F88279A8389830C
:207CA0000E94823F882F90E029813A81822B932B9A8389838DE00E945C3FE3CF8B81853420
:207CC00019F51A82198217C087E590E0FC018081882F90E081709927892BB1F789819A8155
:207CE00023E0FC0120935700E89589819A8180589F4F9A83898389819A8181159C4724F334
:207D00008DE00E945C3FBDCF8B81823589F587E590E0FC018081882F90E081709927892B86
:207D2000B1F781E180935700E89589819A81880F991F01969D838C838C819D81FC018491DB
:207D40008E838E810E945C3F89819A81880F991F98878F838F819885FC01849189878985C4
:207D60000E945C3F89819A8101969A83898389CF8B81833521F489E50E945C3F82CF8B81A8
:207D8000833499F50E94823F882F90E09B878A870E94823F882F90E0982F88272A853B8572
:207DA000822B932B9B878A8787E590E0FC018081882F90E081709927892BB1F789819A81F2
:207DC000880F991F9C018A859B8541E0F9010C0140935700E895112489819A8101969A83AB
:207DE00089838DE00E945C3F4CCF8B818D34B9F487E590E0FC018081882F90E08170992786
:207E0000892BB1F789819A81880F991F25E0FC0120935700E8958DE00E945C3F32CF8B8152
:207E20008835A9F487E590E0FC018081882F90E081709927892BB1F781E180935700E89591
:207E40008DE00E945C3F8AE70E945C3FFCCF8B81893451F482E50E945C3F83E50E945C3FA8
:207E600080E00E945C3F0DCF8FE30E945C3F09CFCF93DF93CDB7DEB785EC90E0FC011082A5
:207E800084EC90E027E6FC01208380EC90E0FC01208180EC90E02D7FFC01208382EC90E0D5
:207EA00026E0FC01208381EC90E028E1FC0120830000DF91CF910895CF93DF930F92CDB730
:207EC000DEB78983000080EC90E0FC018081882F90E080729927892BB1F386EC90E029816A
:207EE000FC012083000080EC90E0FC018081882F90E080729927892BB1F300000F90DF91C8
:207F0000CF910895CF93DF930F92CDB7DEB7000080EC90E0FC0180818823D4F786EC90E0A4
:167F2000FC018081898389810E945C3F89810F90DF91CF910895E4
:00000001FF
