:100000000C9434000C9451000C9451000C94510049
:100010000C9451000C9451000C9451000C9451001C
:100020000C9451000C9451000C9451000C9451000C
:100030000C9451000C9451000C9451000C945100FC
:100040000C9451000C9451000C9453000C945100EA
:100050000C9451000C9451000C9451000C945100DC
:100060000C9451000C94510011241FBECFEFD8E026
:10007000DEBFCDBF11E0A0E0B1E0E8E4F4E002C0F3
:1000800005900D92AA35B107D9F721E0AAE5B1E0B4
:1000900001C01D92AA36B207E1F70E943F010C94FD
:1000A00022020C9400001F920F920FB60F9211249F
:1000B0002F933F938F939F93EF93FF93CF93DF9370
:1000C00000D0CDB7DEB780916601909167010A97A5
:1000D0004CF5209168013091690180916601909101
:1000E0006701820F931F9A83898389819A810A9776
:1000F0002CF089819A810A979A83898386EC90E013
:10010000FC018081282F89819A81845A9E4FFC01AD
:100110002083809166019091670101969093670119
:100120008093660100000F900F90DF91CF91FF91B7
:10013000EF919F918F913F912F910F900FBE0F9054
:100140001F901895CF93DF93CDB7DEB785EC90E085
:10015000FC01108284EC90E027E6FC01208380EC17
:1001600090E0FC01208180EC90E02D7FFC01208359
:1001700082EC90E026E0FC01208381EC90E028E90D
:10018000FC0120830000DF91CF910895CF93DF938E
:100190000F92CDB7DEB78091660190916701181676
:1001A000190664F5F8948091680190916901845A68
:1001B0009E4FFC0180818983809168019091690143
:1001C00001969093690180936801809168019091F4
:1001D00069010A9721F410926901109268018091D7
:1001E0006601909167010197909367018093660182
:1001F00078948981082E000C990B02C08FEF9FEF35
:100200000F90DF91CF910895CF93DF930F92CDB7E9
:10021000DEB7898380EC90E0FC018081882F90E03C
:1002200080729927892BB1F386EC90E02981FC013B
:10023000208300000F90DF91CF910895CF93DF933B
:1002400000D00F92CDB7DEB79B838A8303C089812C
:100250000E9404018A819B819C012F5F3F4F3B8359
:100260002A83FC01808189838981882381F70000AA
:1002700000000F900F900F90DF91CF910895CDB7B0
:10028000DEB76697DEBFCDBF1A82198284E590E0A3
:10029000FC0110820FB6F894A895809160008861E7
:1002A00080936000109260000FBE00001092670102
:1002B0001092660110926901109268010E94A200DA
:1002C000789480E091E00E941E010E94C6009E8307
:1002D0008D838D819E810196C1F38D819E810D97C5
:1002E000A1F089819A810F9784F789819A819C0175
:1002F0002F5F3F4F3A8329834D819E01295F3F4FF6
:10030000820F931FFC014083E0CF9E01295F3F4F86
:1003100089819A81820F931FFC0110821A821982AF
:10032000CE0107966AE171E00E94ED016AE171E099
:1003300080E090E00E94ED019C838B838B819C8107
:10034000892B21F48CE191E09C838B83CE0107966D
:100350006DE171E00E94F201892B29F482E291E0C3
:100360000E941E01B2CFCE0107966CE271E00E949E
:10037000F201892B41F4F89484E590E0FC011082AD
:100380000C94003EA2CFCE01079662E371E00E947A
:10039000F201892B29F485E391E00E941E0195CF9B
:1003A000CE01079665E471E00E94F201892B29F4E1
:1003B00087E491E00E941E0188CFCE0107960E943B
:1003C0001E0180E20E9404018B819C810E941E011B
:1003D00086E591E00E941E0178CF4AE551E00E9437
:1003E000FB010895FB01DC018D9101908019011042
:1003F000D9F3990B0895FA01A191B081009719F4EE
:100400001097E1F0CD01DC01CD010D90002011F439
:10041000C00113C0FB012191222319F02015D9F747
:10042000F3CFFB012191201519F41E92119606C0FD
:100430002223C1F70D900020A1F7D001FA01A1936A
:08044000B0830895F894FFCF8A
:100448006170706C69636174696F6E207374617236
:1004580074696E672E2E2E0A0D00200000746573D5
:10046800740074657374204F4B0A0D0072657365D0
:100478007400696400495F4D455445525F52535FAB
:1004880070410A0D00490049203D2032312E30309C
:0A0498002075410A0D000A0D000056
:00000001FF
